{
	"Proxy.sol": {
		"Proxy": {
			"abi": [
				{
					"inputs": [],
					"stateMutability": "nonpayable",
					"type": "constructor"
				},
				{
					"stateMutability": "payable",
					"type": "fallback"
				},
				{
					"inputs": [],
					"name": "ADMIN_SLOT",
					"outputs": [
						{
							"internalType": "bytes32",
							"name": "",
							"type": "bytes32"
						}
					],
					"stateMutability": "view",
					"type": "function"
				},
				{
					"inputs": [],
					"name": "IMPL_SLOT",
					"outputs": [
						{
							"internalType": "bytes32",
							"name": "",
							"type": "bytes32"
						}
					],
					"stateMutability": "view",
					"type": "function"
				},
				{
					"inputs": [],
					"name": "getAdmin",
					"outputs": [
						{
							"internalType": "address",
							"name": "",
							"type": "address"
						}
					],
					"stateMutability": "view",
					"type": "function"
				},
				{
					"inputs": [],
					"name": "getEImpl",
					"outputs": [
						{
							"internalType": "address",
							"name": "",
							"type": "address"
						}
					],
					"stateMutability": "view",
					"type": "function"
				},
				{
					"inputs": [
						{
							"internalType": "address",
							"name": "_CA",
							"type": "address"
						}
					],
					"name": "setImpl",
					"outputs": [],
					"stateMutability": "nonpayable",
					"type": "function"
				},
				{
					"stateMutability": "payable",
					"type": "receive"
				}
			],
			"devdoc": {
				"kind": "dev",
				"methods": {},
				"version": 1
			},
			"evm": {
				"assembly": "    /* \"Proxy.sol\":58:1600  contract Proxy {... */\n  mstore(0x40, 0x80)\n    /* \"Proxy.sol\":238:289  constructor() {... */\n  callvalue\n  dup1\n  iszero\n  tag_1\n  jumpi\n  0x00\n  dup1\n  revert\ntag_1:\n  pop\n    /* \"Proxy.sol\":262:282  setOwner(msg.sender) */\n  tag_4\n    /* \"Proxy.sol\":271:281  msg.sender */\n  caller\n    /* \"Proxy.sol\":262:270  setOwner */\n  shl(0x20, tag_5)\n    /* \"Proxy.sol\":262:282  setOwner(msg.sender) */\n  0x20\n  shr\n  jump\t// in\ntag_4:\n    /* \"Proxy.sol\":58:1600  contract Proxy {... */\n  jump(tag_6)\n    /* \"Proxy.sol\":501:604  function setOwner(address owner) private {... */\ntag_5:\n    /* \"Proxy.sol\":592:597  owner */\n  dup1\n    /* \"Proxy.sol\":552:583  Slot.getAddressSlot(ADMIN_SLOT) */\n  tag_8\n    /* \"Proxy.sol\":229:230  1 */\n  0x01\n    /* \"Proxy.sol\":207:225  keccak256(\"ADMIN\") */\n  0xdf8b4c520ffe197c5343c6f5aec59570151ef9a492f2c624fd45ddde6135ec42\n    /* \"Proxy.sol\":202:226  uint(keccak256(\"ADMIN\")) */\n  0x00\n  shr\n    /* \"Proxy.sol\":202:230  uint(keccak256(\"ADMIN\")) - 1 */\n  tag_9\n  swap2\n  swap1\n  tag_10\n  jump\t// in\ntag_9:\n    /* \"Proxy.sol\":194:231  bytes32(uint(keccak256(\"ADMIN\")) - 1) */\n  0x00\n  shl\n    /* \"Proxy.sol\":552:571  Slot.getAddressSlot */\n  shl(0x20, tag_11)\n    /* \"Proxy.sol\":552:583  Slot.getAddressSlot(ADMIN_SLOT) */\n  0x20\n  shr\n  jump\t// in\ntag_8:\n    /* \"Proxy.sol\":552:589  Slot.getAddressSlot(ADMIN_SLOT).value */\n  0x00\n  add\n  0x00\n    /* \"Proxy.sol\":552:597  Slot.getAddressSlot(ADMIN_SLOT).value = owner */\n  0x0100\n  exp\n  dup2\n  sload\n  dup2\n  0xffffffffffffffffffffffffffffffffffffffff\n  mul\n  not\n  and\n  swap1\n  dup4\n  0xffffffffffffffffffffffffffffffffffffffff\n  and\n  mul\n  or\n  swap1\n  sstore\n  pop\n    /* \"Proxy.sol\":501:604  function setOwner(address owner) private {... */\n  pop\n  jump\t// out\n    /* \"Proxy.sol\":1676:1835  function getAddressSlot(bytes32 slot) internal pure returns (AddressSlot storage pointer) {... */\ntag_11:\n    /* \"Proxy.sol\":1737:1764  AddressSlot storage pointer */\n  0x00\n    /* \"Proxy.sol\":1815:1819  slot */\n  dup2\n    /* \"Proxy.sol\":1799:1819  pointer.slot := slot */\n  swap1\n  pop\n    /* \"Proxy.sol\":1676:1835  function getAddressSlot(bytes32 slot) internal pure returns (AddressSlot storage pointer) {... */\n  swap2\n  swap1\n  pop\n  jump\t// out\n    /* \"#utility.yul\":7:84   */\ntag_13:\n    /* \"#utility.yul\":44:51   */\n  0x00\n    /* \"#utility.yul\":73:78   */\n  dup2\n    /* \"#utility.yul\":62:78   */\n  swap1\n  pop\n    /* \"#utility.yul\":7:84   */\n  swap2\n  swap1\n  pop\n  jump\t// out\n    /* \"#utility.yul\":90:270   */\ntag_14:\n    /* \"#utility.yul\":138:215   */\n  0x4e487b7100000000000000000000000000000000000000000000000000000000\n    /* \"#utility.yul\":135:136   */\n  0x00\n    /* \"#utility.yul\":128:216   */\n  mstore\n    /* \"#utility.yul\":235:239   */\n  0x11\n    /* \"#utility.yul\":232:233   */\n  0x04\n    /* \"#utility.yul\":225:240   */\n  mstore\n    /* \"#utility.yul\":259:263   */\n  0x24\n    /* \"#utility.yul\":256:257   */\n  0x00\n    /* \"#utility.yul\":249:264   */\n  revert\n    /* \"#utility.yul\":276:470   */\ntag_10:\n    /* \"#utility.yul\":316:320   */\n  0x00\n    /* \"#utility.yul\":336:356   */\n  tag_19\n    /* \"#utility.yul\":354:355   */\n  dup3\n    /* \"#utility.yul\":336:356   */\n  tag_13\n  jump\t// in\ntag_19:\n    /* \"#utility.yul\":331:356   */\n  swap2\n  pop\n    /* \"#utility.yul\":370:390   */\n  tag_20\n    /* \"#utility.yul\":388:389   */\n  dup4\n    /* \"#utility.yul\":370:390   */\n  tag_13\n  jump\t// in\ntag_20:\n    /* \"#utility.yul\":365:390   */\n  swap3\n  pop\n    /* \"#utility.yul\":414:415   */\n  dup3\n    /* \"#utility.yul\":411:412   */\n  dup3\n    /* \"#utility.yul\":407:416   */\n  sub\n    /* \"#utility.yul\":399:416   */\n  swap1\n  pop\n    /* \"#utility.yul\":438:439   */\n  dup2\n    /* \"#utility.yul\":432:436   */\n  dup2\n    /* \"#utility.yul\":429:440   */\n  gt\n    /* \"#utility.yul\":426:463   */\n  iszero\n  tag_21\n  jumpi\n    /* \"#utility.yul\":443:461   */\n  tag_22\n  tag_14\n  jump\t// in\ntag_22:\n    /* \"#utility.yul\":426:463   */\ntag_21:\n    /* \"#utility.yul\":276:470   */\n  swap3\n  swap2\n  pop\n  pop\n  jump\t// out\n    /* \"Proxy.sol\":58:1600  contract Proxy {... */\ntag_6:\n  dataSize(sub_0)\n  dup1\n  dataOffset(sub_0)\n  0x00\n  codecopy\n  0x00\n  return\nstop\n\nsub_0: assembly {\n        /* \"Proxy.sol\":58:1600  contract Proxy {... */\n      mstore(0x40, 0x80)\n      jumpi(tag_1, lt(calldatasize, 0x04))\n      shr(0xe0, calldataload(0x00))\n      dup1\n      0x373dcc12\n      eq\n      tag_3\n      jumpi\n      dup1\n      0x691bd2ae\n      eq\n      tag_4\n      jumpi\n      dup1\n      0x6e9960c3\n      eq\n      tag_5\n      jumpi\n      dup1\n      0x9c4b32be\n      eq\n      tag_6\n      jumpi\n      dup1\n      0xa0ab35aa\n      eq\n      tag_7\n      jumpi\n      jump(tag_2)\n    tag_1:\n      jumpi(tag_2, calldatasize)\n        /* \"Proxy.sol\":1572:1591  delegate(getImpl()) */\n      tag_10\n        /* \"Proxy.sol\":1581:1590  getImpl() */\n      tag_11\n        /* \"Proxy.sol\":1581:1588  getImpl */\n      tag_12\n        /* \"Proxy.sol\":1581:1590  getImpl() */\n      jump\t// in\n    tag_11:\n        /* \"Proxy.sol\":1572:1580  delegate */\n      tag_13\n        /* \"Proxy.sol\":1572:1591  delegate(getImpl()) */\n      jump\t// in\n    tag_10:\n        /* \"Proxy.sol\":58:1600  contract Proxy {... */\n      stop\n    tag_2:\n        /* \"Proxy.sol\":1503:1522  delegate(getImpl()) */\n      tag_16\n        /* \"Proxy.sol\":1512:1521  getImpl() */\n      tag_17\n        /* \"Proxy.sol\":1512:1519  getImpl */\n      tag_12\n        /* \"Proxy.sol\":1512:1521  getImpl() */\n      jump\t// in\n    tag_17:\n        /* \"Proxy.sol\":1503:1511  delegate */\n      tag_13\n        /* \"Proxy.sol\":1503:1522  delegate(getImpl()) */\n      jump\t// in\n    tag_16:\n        /* \"Proxy.sol\":58:1600  contract Proxy {... */\n      stop\n        /* \"Proxy.sol\":930:1015  function getEImpl() external view returns (address) {... */\n    tag_3:\n      callvalue\n      dup1\n      iszero\n      tag_18\n      jumpi\n      0x00\n      dup1\n      revert\n    tag_18:\n      pop\n      tag_19\n      tag_20\n      jump\t// in\n    tag_19:\n      mload(0x40)\n      tag_21\n      swap2\n      swap1\n      tag_22\n      jump\t// in\n    tag_21:\n      mload(0x40)\n      dup1\n      swap2\n      sub\n      swap1\n      return\n        /* \"Proxy.sol\":726:832  function setImpl(address _CA) public onlyOwner {... */\n    tag_4:\n      callvalue\n      dup1\n      iszero\n      tag_23\n      jumpi\n      0x00\n      dup1\n      revert\n    tag_23:\n      pop\n      tag_24\n      0x04\n      dup1\n      calldatasize\n      sub\n      dup2\n      add\n      swap1\n      tag_25\n      swap2\n      swap1\n      tag_26\n      jump\t// in\n    tag_25:\n      tag_27\n      jump\t// in\n    tag_24:\n      stop\n        /* \"Proxy.sol\":838:924  function getAdmin() external view returns (address) {... */\n    tag_5:\n      callvalue\n      dup1\n      iszero\n      tag_28\n      jumpi\n      0x00\n      dup1\n      revert\n    tag_28:\n      pop\n      tag_29\n      tag_30\n      jump\t// in\n    tag_29:\n      mload(0x40)\n      tag_31\n      swap2\n      swap1\n      tag_22\n      jump\t// in\n    tag_31:\n      mload(0x40)\n      dup1\n      swap2\n      sub\n      swap1\n      return\n        /* \"Proxy.sol\":157:231  bytes32 public constant ADMIN_SLOT = bytes32(uint(keccak256(\"ADMIN\")) - 1) */\n    tag_6:\n      callvalue\n      dup1\n      iszero\n      tag_32\n      jumpi\n      0x00\n      dup1\n      revert\n    tag_32:\n      pop\n      tag_33\n      tag_34\n      jump\t// in\n    tag_33:\n      mload(0x40)\n      tag_35\n      swap2\n      swap1\n      tag_36\n      jump\t// in\n    tag_35:\n      mload(0x40)\n      dup1\n      swap2\n      sub\n      swap1\n      return\n        /* \"Proxy.sol\":79:151  bytes32 public constant IMPL_SLOT = bytes32(uint(keccak256(\"IMPL\")) - 1) */\n    tag_7:\n      callvalue\n      dup1\n      iszero\n      tag_37\n      jumpi\n      0x00\n      dup1\n      revert\n    tag_37:\n      pop\n      tag_38\n      tag_39\n      jump\t// in\n    tag_38:\n      mload(0x40)\n      tag_40\n      swap2\n      swap1\n      tag_36\n      jump\t// in\n    tag_40:\n      mload(0x40)\n      dup1\n      swap2\n      sub\n      swap1\n      return\n        /* \"Proxy.sol\":610:720  function getImpl() private view returns (address) {... */\n    tag_12:\n        /* \"Proxy.sol\":651:658  address */\n      0x00\n        /* \"Proxy.sol\":677:707  Slot.getAddressSlot(IMPL_SLOT) */\n      tag_42\n        /* \"Proxy.sol\":149:150  1 */\n      0x01\n        /* \"Proxy.sol\":128:145  keccak256(\"IMPL\") */\n      0x486287226df0757af294903da9bc1edb84c92006afe00d704a2e6e2aea90d6b8\n        /* \"Proxy.sol\":123:146  uint(keccak256(\"IMPL\")) */\n      0x00\n      shr\n        /* \"Proxy.sol\":123:150  uint(keccak256(\"IMPL\")) - 1 */\n      tag_43\n      swap2\n      swap1\n      tag_44\n      jump\t// in\n    tag_43:\n        /* \"Proxy.sol\":115:151  bytes32(uint(keccak256(\"IMPL\")) - 1) */\n      0x00\n      shl\n        /* \"Proxy.sol\":677:696  Slot.getAddressSlot */\n      tag_45\n        /* \"Proxy.sol\":677:707  Slot.getAddressSlot(IMPL_SLOT) */\n      jump\t// in\n    tag_42:\n        /* \"Proxy.sol\":677:713  Slot.getAddressSlot(IMPL_SLOT).value */\n      0x00\n      add\n      0x00\n      swap1\n      sload\n      swap1\n      0x0100\n      exp\n      swap1\n      div\n      0xffffffffffffffffffffffffffffffffffffffff\n      and\n        /* \"Proxy.sol\":670:713  return Slot.getAddressSlot(IMPL_SLOT).value */\n      swap1\n      pop\n        /* \"Proxy.sol\":610:720  function getImpl() private view returns (address) {... */\n      swap1\n      jump\t// out\n        /* \"Proxy.sol\":1021:1459  function delegate(address impl) private {... */\n    tag_13:\n        /* \"Proxy.sol\":1113:1127  calldatasize() */\n      calldatasize\n        /* \"Proxy.sol\":1110:1111  0 */\n      0x00\n        /* \"Proxy.sol\":1107:1108  0 */\n      dup1\n        /* \"Proxy.sol\":1094:1128  calldatacopy(0, 0, calldatasize()) */\n      calldatacopy\n        /* \"Proxy.sol\":1204:1205  0 */\n      0x00\n        /* \"Proxy.sol\":1201:1202  0 */\n      dup1\n        /* \"Proxy.sol\":1185:1199  calldatasize() */\n      calldatasize\n        /* \"Proxy.sol\":1182:1183  0 */\n      0x00\n        /* \"Proxy.sol\":1176:1180  impl */\n      dup5\n        /* \"Proxy.sol\":1169:1174  gas() */\n      gas\n        /* \"Proxy.sol\":1156:1206  delegatecall(gas(), impl, 0, calldatasize(), 0, 0) */\n      delegatecall\n        /* \"Proxy.sol\":1240:1256  returndatasize() */\n      returndatasize\n        /* \"Proxy.sol\":1237:1238  0 */\n      0x00\n        /* \"Proxy.sol\":1234:1235  0 */\n      dup1\n        /* \"Proxy.sol\":1219:1257  returndatacopy(0, 0, returndatasize()) */\n      returndatacopy\n        /* \"Proxy.sol\":1278:1284  result */\n      dup1\n        /* \"Proxy.sol\":1302:1303  0 */\n      0x00\n        /* \"Proxy.sol\":1297:1363  case 0 {... */\n      dup2\n      eq\n      tag_48\n      jumpi\n        /* \"Proxy.sol\":1412:1428  returndatasize() */\n      returndatasize\n        /* \"Proxy.sol\":1409:1410  0 */\n      0x00\n        /* \"Proxy.sol\":1402:1429  return(0, returndatasize()) */\n      return\n        /* \"Proxy.sol\":1297:1363  case 0 {... */\n    tag_48:\n        /* \"Proxy.sol\":1332:1348  returndatasize() */\n      returndatasize\n        /* \"Proxy.sol\":1329:1330  0 */\n      0x00\n        /* \"Proxy.sol\":1322:1349  revert(0, returndatasize()) */\n      revert\n        /* \"Proxy.sol\":930:1015  function getEImpl() external view returns (address) {... */\n    tag_20:\n        /* \"Proxy.sol\":973:980  address */\n      0x00\n        /* \"Proxy.sol\":999:1008  getImpl() */\n      tag_50\n        /* \"Proxy.sol\":999:1006  getImpl */\n      tag_12\n        /* \"Proxy.sol\":999:1008  getImpl() */\n      jump\t// in\n    tag_50:\n        /* \"Proxy.sol\":992:1008  return getImpl() */\n      swap1\n      pop\n        /* \"Proxy.sol\":930:1015  function getEImpl() external view returns (address) {... */\n      swap1\n      jump\t// out\n        /* \"Proxy.sol\":726:832  function setImpl(address _CA) public onlyOwner {... */\n    tag_27:\n        /* \"Proxy.sol\":348:358  getOwner() */\n      tag_52\n        /* \"Proxy.sol\":348:356  getOwner */\n      tag_53\n        /* \"Proxy.sol\":348:358  getOwner() */\n      jump\t// in\n    tag_52:\n        /* \"Proxy.sol\":334:358  msg.sender == getOwner() */\n      0xffffffffffffffffffffffffffffffffffffffff\n      and\n        /* \"Proxy.sol\":334:344  msg.sender */\n      caller\n        /* \"Proxy.sol\":334:358  msg.sender == getOwner() */\n      0xffffffffffffffffffffffffffffffffffffffff\n      and\n      eq\n        /* \"Proxy.sol\":326:359  require(msg.sender == getOwner()) */\n      tag_54\n      jumpi\n      0x00\n      dup1\n      revert\n    tag_54:\n        /* \"Proxy.sol\":822:825  _CA */\n      dup1\n        /* \"Proxy.sol\":783:813  Slot.getAddressSlot(IMPL_SLOT) */\n      tag_56\n        /* \"Proxy.sol\":149:150  1 */\n      0x01\n        /* \"Proxy.sol\":128:145  keccak256(\"IMPL\") */\n      0x486287226df0757af294903da9bc1edb84c92006afe00d704a2e6e2aea90d6b8\n        /* \"Proxy.sol\":123:146  uint(keccak256(\"IMPL\")) */\n      0x00\n      shr\n        /* \"Proxy.sol\":123:150  uint(keccak256(\"IMPL\")) - 1 */\n      tag_57\n      swap2\n      swap1\n      tag_44\n      jump\t// in\n    tag_57:\n        /* \"Proxy.sol\":115:151  bytes32(uint(keccak256(\"IMPL\")) - 1) */\n      0x00\n      shl\n        /* \"Proxy.sol\":783:802  Slot.getAddressSlot */\n      tag_45\n        /* \"Proxy.sol\":783:813  Slot.getAddressSlot(IMPL_SLOT) */\n      jump\t// in\n    tag_56:\n        /* \"Proxy.sol\":783:819  Slot.getAddressSlot(IMPL_SLOT).value */\n      0x00\n      add\n      0x00\n        /* \"Proxy.sol\":783:825  Slot.getAddressSlot(IMPL_SLOT).value = _CA */\n      0x0100\n      exp\n      dup2\n      sload\n      dup2\n      0xffffffffffffffffffffffffffffffffffffffff\n      mul\n      not\n      and\n      swap1\n      dup4\n      0xffffffffffffffffffffffffffffffffffffffff\n      and\n      mul\n      or\n      swap1\n      sstore\n      pop\n        /* \"Proxy.sol\":726:832  function setImpl(address _CA) public onlyOwner {... */\n      pop\n      jump\t// out\n        /* \"Proxy.sol\":838:924  function getAdmin() external view returns (address) {... */\n    tag_30:\n        /* \"Proxy.sol\":881:888  address */\n      0x00\n        /* \"Proxy.sol\":907:917  getOwner() */\n      tag_59\n        /* \"Proxy.sol\":907:915  getOwner */\n      tag_53\n        /* \"Proxy.sol\":907:917  getOwner() */\n      jump\t// in\n    tag_59:\n        /* \"Proxy.sol\":900:917  return getOwner() */\n      swap1\n      pop\n        /* \"Proxy.sol\":838:924  function getAdmin() external view returns (address) {... */\n      swap1\n      jump\t// out\n        /* \"Proxy.sol\":157:231  bytes32 public constant ADMIN_SLOT = bytes32(uint(keccak256(\"ADMIN\")) - 1) */\n    tag_34:\n        /* \"Proxy.sol\":229:230  1 */\n      0x01\n        /* \"Proxy.sol\":207:225  keccak256(\"ADMIN\") */\n      0xdf8b4c520ffe197c5343c6f5aec59570151ef9a492f2c624fd45ddde6135ec42\n        /* \"Proxy.sol\":202:226  uint(keccak256(\"ADMIN\")) */\n      0x00\n      shr\n        /* \"Proxy.sol\":202:230  uint(keccak256(\"ADMIN\")) - 1 */\n      tag_60\n      swap2\n      swap1\n      tag_44\n      jump\t// in\n    tag_60:\n        /* \"Proxy.sol\":194:231  bytes32(uint(keccak256(\"ADMIN\")) - 1) */\n      0x00\n      shl\n        /* \"Proxy.sol\":157:231  bytes32 public constant ADMIN_SLOT = bytes32(uint(keccak256(\"ADMIN\")) - 1) */\n      dup2\n      jump\t// out\n        /* \"Proxy.sol\":79:151  bytes32 public constant IMPL_SLOT = bytes32(uint(keccak256(\"IMPL\")) - 1) */\n    tag_39:\n        /* \"Proxy.sol\":149:150  1 */\n      0x01\n        /* \"Proxy.sol\":128:145  keccak256(\"IMPL\") */\n      0x486287226df0757af294903da9bc1edb84c92006afe00d704a2e6e2aea90d6b8\n        /* \"Proxy.sol\":123:146  uint(keccak256(\"IMPL\")) */\n      0x00\n      shr\n        /* \"Proxy.sol\":123:150  uint(keccak256(\"IMPL\")) - 1 */\n      tag_61\n      swap2\n      swap1\n      tag_44\n      jump\t// in\n    tag_61:\n        /* \"Proxy.sol\":115:151  bytes32(uint(keccak256(\"IMPL\")) - 1) */\n      0x00\n      shl\n        /* \"Proxy.sol\":79:151  bytes32 public constant IMPL_SLOT = bytes32(uint(keccak256(\"IMPL\")) - 1) */\n      dup2\n      jump\t// out\n        /* \"Proxy.sol\":1676:1835  function getAddressSlot(bytes32 slot) internal pure returns (AddressSlot storage pointer) {... */\n    tag_45:\n        /* \"Proxy.sol\":1737:1764  AddressSlot storage pointer */\n      0x00\n        /* \"Proxy.sol\":1815:1819  slot */\n      dup2\n        /* \"Proxy.sol\":1799:1819  pointer.slot := slot */\n      swap1\n      pop\n        /* \"Proxy.sol\":1676:1835  function getAddressSlot(bytes32 slot) internal pure returns (AddressSlot storage pointer) {... */\n      swap2\n      swap1\n      pop\n      jump\t// out\n        /* \"Proxy.sol\":383:495  function getOwner() private view returns (address) {... */\n    tag_53:\n        /* \"Proxy.sol\":425:432  address */\n      0x00\n        /* \"Proxy.sol\":451:482  Slot.getAddressSlot(ADMIN_SLOT) */\n      tag_64\n        /* \"Proxy.sol\":229:230  1 */\n      0x01\n        /* \"Proxy.sol\":207:225  keccak256(\"ADMIN\") */\n      0xdf8b4c520ffe197c5343c6f5aec59570151ef9a492f2c624fd45ddde6135ec42\n        /* \"Proxy.sol\":202:226  uint(keccak256(\"ADMIN\")) */\n      0x00\n      shr\n        /* \"Proxy.sol\":202:230  uint(keccak256(\"ADMIN\")) - 1 */\n      tag_65\n      swap2\n      swap1\n      tag_44\n      jump\t// in\n    tag_65:\n        /* \"Proxy.sol\":194:231  bytes32(uint(keccak256(\"ADMIN\")) - 1) */\n      0x00\n      shl\n        /* \"Proxy.sol\":451:470  Slot.getAddressSlot */\n      tag_45\n        /* \"Proxy.sol\":451:482  Slot.getAddressSlot(ADMIN_SLOT) */\n      jump\t// in\n    tag_64:\n        /* \"Proxy.sol\":451:488  Slot.getAddressSlot(ADMIN_SLOT).value */\n      0x00\n      add\n      0x00\n      swap1\n      sload\n      swap1\n      0x0100\n      exp\n      swap1\n      div\n      0xffffffffffffffffffffffffffffffffffffffff\n      and\n        /* \"Proxy.sol\":444:488  return Slot.getAddressSlot(ADMIN_SLOT).value */\n      swap1\n      pop\n        /* \"Proxy.sol\":383:495  function getOwner() private view returns (address) {... */\n      swap1\n      jump\t// out\n        /* \"#utility.yul\":7:133   */\n    tag_66:\n        /* \"#utility.yul\":44:51   */\n      0x00\n        /* \"#utility.yul\":84:126   */\n      0xffffffffffffffffffffffffffffffffffffffff\n        /* \"#utility.yul\":77:82   */\n      dup3\n        /* \"#utility.yul\":73:127   */\n      and\n        /* \"#utility.yul\":62:127   */\n      swap1\n      pop\n        /* \"#utility.yul\":7:133   */\n      swap2\n      swap1\n      pop\n      jump\t// out\n        /* \"#utility.yul\":139:235   */\n    tag_67:\n        /* \"#utility.yul\":176:183   */\n      0x00\n        /* \"#utility.yul\":205:229   */\n      tag_81\n        /* \"#utility.yul\":223:228   */\n      dup3\n        /* \"#utility.yul\":205:229   */\n      tag_66\n      jump\t// in\n    tag_81:\n        /* \"#utility.yul\":194:229   */\n      swap1\n      pop\n        /* \"#utility.yul\":139:235   */\n      swap2\n      swap1\n      pop\n      jump\t// out\n        /* \"#utility.yul\":241:359   */\n    tag_68:\n        /* \"#utility.yul\":328:352   */\n      tag_83\n        /* \"#utility.yul\":346:351   */\n      dup2\n        /* \"#utility.yul\":328:352   */\n      tag_67\n      jump\t// in\n    tag_83:\n        /* \"#utility.yul\":323:326   */\n      dup3\n        /* \"#utility.yul\":316:353   */\n      mstore\n        /* \"#utility.yul\":241:359   */\n      pop\n      pop\n      jump\t// out\n        /* \"#utility.yul\":365:587   */\n    tag_22:\n        /* \"#utility.yul\":458:462   */\n      0x00\n        /* \"#utility.yul\":496:498   */\n      0x20\n        /* \"#utility.yul\":485:494   */\n      dup3\n        /* \"#utility.yul\":481:499   */\n      add\n        /* \"#utility.yul\":473:499   */\n      swap1\n      pop\n        /* \"#utility.yul\":509:580   */\n      tag_85\n        /* \"#utility.yul\":577:578   */\n      0x00\n        /* \"#utility.yul\":566:575   */\n      dup4\n        /* \"#utility.yul\":562:579   */\n      add\n        /* \"#utility.yul\":553:559   */\n      dup5\n        /* \"#utility.yul\":509:580   */\n      tag_68\n      jump\t// in\n    tag_85:\n        /* \"#utility.yul\":365:587   */\n      swap3\n      swap2\n      pop\n      pop\n      jump\t// out\n        /* \"#utility.yul\":674:791   */\n    tag_70:\n        /* \"#utility.yul\":783:784   */\n      0x00\n        /* \"#utility.yul\":780:781   */\n      dup1\n        /* \"#utility.yul\":773:785   */\n      revert\n        /* \"#utility.yul\":920:1042   */\n    tag_72:\n        /* \"#utility.yul\":993:1017   */\n      tag_90\n        /* \"#utility.yul\":1011:1016   */\n      dup2\n        /* \"#utility.yul\":993:1017   */\n      tag_67\n      jump\t// in\n    tag_90:\n        /* \"#utility.yul\":986:991   */\n      dup2\n        /* \"#utility.yul\":983:1018   */\n      eq\n        /* \"#utility.yul\":973:1036   */\n      tag_91\n      jumpi\n        /* \"#utility.yul\":1032:1033   */\n      0x00\n        /* \"#utility.yul\":1029:1030   */\n      dup1\n        /* \"#utility.yul\":1022:1034   */\n      revert\n        /* \"#utility.yul\":973:1036   */\n    tag_91:\n        /* \"#utility.yul\":920:1042   */\n      pop\n      jump\t// out\n        /* \"#utility.yul\":1048:1187   */\n    tag_73:\n        /* \"#utility.yul\":1094:1099   */\n      0x00\n        /* \"#utility.yul\":1132:1138   */\n      dup2\n        /* \"#utility.yul\":1119:1139   */\n      calldataload\n        /* \"#utility.yul\":1110:1139   */\n      swap1\n      pop\n        /* \"#utility.yul\":1148:1181   */\n      tag_93\n        /* \"#utility.yul\":1175:1180   */\n      dup2\n        /* \"#utility.yul\":1148:1181   */\n      tag_72\n      jump\t// in\n    tag_93:\n        /* \"#utility.yul\":1048:1187   */\n      swap3\n      swap2\n      pop\n      pop\n      jump\t// out\n        /* \"#utility.yul\":1193:1522   */\n    tag_26:\n        /* \"#utility.yul\":1252:1258   */\n      0x00\n        /* \"#utility.yul\":1301:1303   */\n      0x20\n        /* \"#utility.yul\":1289:1298   */\n      dup3\n        /* \"#utility.yul\":1280:1287   */\n      dup5\n        /* \"#utility.yul\":1276:1299   */\n      sub\n        /* \"#utility.yul\":1272:1304   */\n      slt\n        /* \"#utility.yul\":1269:1388   */\n      iszero\n      tag_95\n      jumpi\n        /* \"#utility.yul\":1307:1386   */\n      tag_96\n      tag_70\n      jump\t// in\n    tag_96:\n        /* \"#utility.yul\":1269:1388   */\n    tag_95:\n        /* \"#utility.yul\":1427:1428   */\n      0x00\n        /* \"#utility.yul\":1452:1505   */\n      tag_97\n        /* \"#utility.yul\":1497:1504   */\n      dup5\n        /* \"#utility.yul\":1488:1494   */\n      dup3\n        /* \"#utility.yul\":1477:1486   */\n      dup6\n        /* \"#utility.yul\":1473:1495   */\n      add\n        /* \"#utility.yul\":1452:1505   */\n      tag_73\n      jump\t// in\n    tag_97:\n        /* \"#utility.yul\":1442:1505   */\n      swap2\n      pop\n        /* \"#utility.yul\":1398:1515   */\n      pop\n        /* \"#utility.yul\":1193:1522   */\n      swap3\n      swap2\n      pop\n      pop\n      jump\t// out\n        /* \"#utility.yul\":1528:1605   */\n    tag_74:\n        /* \"#utility.yul\":1565:1572   */\n      0x00\n        /* \"#utility.yul\":1594:1599   */\n      dup2\n        /* \"#utility.yul\":1583:1599   */\n      swap1\n      pop\n        /* \"#utility.yul\":1528:1605   */\n      swap2\n      swap1\n      pop\n      jump\t// out\n        /* \"#utility.yul\":1611:1729   */\n    tag_75:\n        /* \"#utility.yul\":1698:1722   */\n      tag_100\n        /* \"#utility.yul\":1716:1721   */\n      dup2\n        /* \"#utility.yul\":1698:1722   */\n      tag_74\n      jump\t// in\n    tag_100:\n        /* \"#utility.yul\":1693:1696   */\n      dup3\n        /* \"#utility.yul\":1686:1723   */\n      mstore\n        /* \"#utility.yul\":1611:1729   */\n      pop\n      pop\n      jump\t// out\n        /* \"#utility.yul\":1735:1957   */\n    tag_36:\n        /* \"#utility.yul\":1828:1832   */\n      0x00\n        /* \"#utility.yul\":1866:1868   */\n      0x20\n        /* \"#utility.yul\":1855:1864   */\n      dup3\n        /* \"#utility.yul\":1851:1869   */\n      add\n        /* \"#utility.yul\":1843:1869   */\n      swap1\n      pop\n        /* \"#utility.yul\":1879:1950   */\n      tag_102\n        /* \"#utility.yul\":1947:1948   */\n      0x00\n        /* \"#utility.yul\":1936:1945   */\n      dup4\n        /* \"#utility.yul\":1932:1949   */\n      add\n        /* \"#utility.yul\":1923:1929   */\n      dup5\n        /* \"#utility.yul\":1879:1950   */\n      tag_75\n      jump\t// in\n    tag_102:\n        /* \"#utility.yul\":1735:1957   */\n      swap3\n      swap2\n      pop\n      pop\n      jump\t// out\n        /* \"#utility.yul\":1963:2040   */\n    tag_76:\n        /* \"#utility.yul\":2000:2007   */\n      0x00\n        /* \"#utility.yul\":2029:2034   */\n      dup2\n        /* \"#utility.yul\":2018:2034   */\n      swap1\n      pop\n        /* \"#utility.yul\":1963:2040   */\n      swap2\n      swap1\n      pop\n      jump\t// out\n        /* \"#utility.yul\":2046:2226   */\n    tag_77:\n        /* \"#utility.yul\":2094:2171   */\n      0x4e487b7100000000000000000000000000000000000000000000000000000000\n        /* \"#utility.yul\":2091:2092   */\n      0x00\n        /* \"#utility.yul\":2084:2172   */\n      mstore\n        /* \"#utility.yul\":2191:2195   */\n      0x11\n        /* \"#utility.yul\":2188:2189   */\n      0x04\n        /* \"#utility.yul\":2181:2196   */\n      mstore\n        /* \"#utility.yul\":2215:2219   */\n      0x24\n        /* \"#utility.yul\":2212:2213   */\n      0x00\n        /* \"#utility.yul\":2205:2220   */\n      revert\n        /* \"#utility.yul\":2232:2426   */\n    tag_44:\n        /* \"#utility.yul\":2272:2276   */\n      0x00\n        /* \"#utility.yul\":2292:2312   */\n      tag_106\n        /* \"#utility.yul\":2310:2311   */\n      dup3\n        /* \"#utility.yul\":2292:2312   */\n      tag_76\n      jump\t// in\n    tag_106:\n        /* \"#utility.yul\":2287:2312   */\n      swap2\n      pop\n        /* \"#utility.yul\":2326:2346   */\n      tag_107\n        /* \"#utility.yul\":2344:2345   */\n      dup4\n        /* \"#utility.yul\":2326:2346   */\n      tag_76\n      jump\t// in\n    tag_107:\n        /* \"#utility.yul\":2321:2346   */\n      swap3\n      pop\n        /* \"#utility.yul\":2370:2371   */\n      dup3\n        /* \"#utility.yul\":2367:2368   */\n      dup3\n        /* \"#utility.yul\":2363:2372   */\n      sub\n        /* \"#utility.yul\":2355:2372   */\n      swap1\n      pop\n        /* \"#utility.yul\":2394:2395   */\n      dup2\n        /* \"#utility.yul\":2388:2392   */\n      dup2\n        /* \"#utility.yul\":2385:2396   */\n      gt\n        /* \"#utility.yul\":2382:2419   */\n      iszero\n      tag_108\n      jumpi\n        /* \"#utility.yul\":2399:2417   */\n      tag_109\n      tag_77\n      jump\t// in\n    tag_109:\n        /* \"#utility.yul\":2382:2419   */\n    tag_108:\n        /* \"#utility.yul\":2232:2426   */\n      swap3\n      swap2\n      pop\n      pop\n      jump\t// out\n\n    auxdata: 0xa2646970667358221220ad02542d01beba69bee81c855c763a7a7cecc417c782154e4ce49908c5ca9e7064736f6c63430008140033\n}\n",
				"bytecode": {
					"linkReferences": {},
					"object": "608060405234801561000f575f80fd5b5061001f3361002460201b60201c565b610118565b8061006460017fdf8b4c520ffe197c5343c6f5aec59570151ef9a492f2c624fd45ddde6135ec425f1c61005791906100e5565b5f1b6100a660201b60201c565b5f015f6101000a81548173ffffffffffffffffffffffffffffffffffffffff021916908373ffffffffffffffffffffffffffffffffffffffff16021790555050565b5f819050919050565b5f819050919050565b7f4e487b71000000000000000000000000000000000000000000000000000000005f52601160045260245ffd5b5f6100ef826100af565b91506100fa836100af565b9250828203905081811115610112576101116100b8565b5b92915050565b6104ef806101255f395ff3fe60806040526004361061004d575f3560e01c8063373dcc1214610076578063691bd2ae146100a05780636e9960c3146100c85780639c4b32be146100f2578063a0ab35aa1461011c57610064565b366100645761006261005d610146565b6101a7565b005b61007461006f610146565b6101a7565b005b348015610081575f80fd5b5061008a6101c6565b60405161009791906103ad565b60405180910390f35b3480156100ab575f80fd5b506100c660048036038101906100c191906103f4565b6101d4565b005b3480156100d3575f80fd5b506100dc61028e565b6040516100e991906103ad565b60405180910390f35b3480156100fd575f80fd5b5061010661029c565b6040516101139190610437565b60405180910390f35b348015610127575f80fd5b506101306102d0565b60405161013d9190610437565b60405180910390f35b5f61018060017f486287226df0757af294903da9bc1edb84c92006afe00d704a2e6e2aea90d6b85f1c6101799190610486565b5f1b610304565b5f015f9054906101000a900473ffffffffffffffffffffffffffffffffffffffff16905090565b365f80375f80365f845af43d5f803e805f81146101c2573d5ff35b3d5ffd5b5f6101cf610146565b905090565b6101dc61030d565b73ffffffffffffffffffffffffffffffffffffffff163373ffffffffffffffffffffffffffffffffffffffff1614610212575f80fd5b8061024c60017f486287226df0757af294903da9bc1edb84c92006afe00d704a2e6e2aea90d6b85f1c6102459190610486565b5f1b610304565b5f015f6101000a81548173ffffffffffffffffffffffffffffffffffffffff021916908373ffffffffffffffffffffffffffffffffffffffff16021790555050565b5f61029761030d565b905090565b60017fdf8b4c520ffe197c5343c6f5aec59570151ef9a492f2c624fd45ddde6135ec425f1c6102cb9190610486565b5f1b81565b60017f486287226df0757af294903da9bc1edb84c92006afe00d704a2e6e2aea90d6b85f1c6102ff9190610486565b5f1b81565b5f819050919050565b5f61034760017fdf8b4c520ffe197c5343c6f5aec59570151ef9a492f2c624fd45ddde6135ec425f1c6103409190610486565b5f1b610304565b5f015f9054906101000a900473ffffffffffffffffffffffffffffffffffffffff16905090565b5f73ffffffffffffffffffffffffffffffffffffffff82169050919050565b5f6103978261036e565b9050919050565b6103a78161038d565b82525050565b5f6020820190506103c05f83018461039e565b92915050565b5f80fd5b6103d38161038d565b81146103dd575f80fd5b50565b5f813590506103ee816103ca565b92915050565b5f60208284031215610409576104086103c6565b5b5f610416848285016103e0565b91505092915050565b5f819050919050565b6104318161041f565b82525050565b5f60208201905061044a5f830184610428565b92915050565b5f819050919050565b7f4e487b71000000000000000000000000000000000000000000000000000000005f52601160045260245ffd5b5f61049082610450565b915061049b83610450565b92508282039050818111156104b3576104b2610459565b5b9291505056fea2646970667358221220ad02542d01beba69bee81c855c763a7a7cecc417c782154e4ce49908c5ca9e7064736f6c63430008140033",
					"opcodes": "PUSH1 0x80 PUSH1 0x40 MSTORE CALLVALUE DUP1 ISZERO PUSH2 0xF JUMPI PUSH0 DUP1 REVERT JUMPDEST POP PUSH2 0x1F CALLER PUSH2 0x24 PUSH1 0x20 SHL PUSH1 0x20 SHR JUMP JUMPDEST PUSH2 0x118 JUMP JUMPDEST DUP1 PUSH2 0x64 PUSH1 0x1 PUSH32 0xDF8B4C520FFE197C5343C6F5AEC59570151EF9A492F2C624FD45DDDE6135EC42 PUSH0 SHR PUSH2 0x57 SWAP2 SWAP1 PUSH2 0xE5 JUMP JUMPDEST PUSH0 SHL PUSH2 0xA6 PUSH1 0x20 SHL PUSH1 0x20 SHR JUMP JUMPDEST PUSH0 ADD PUSH0 PUSH2 0x100 EXP DUP2 SLOAD DUP2 PUSH20 0xFFFFFFFFFFFFFFFFFFFFFFFFFFFFFFFFFFFFFFFF MUL NOT AND SWAP1 DUP4 PUSH20 0xFFFFFFFFFFFFFFFFFFFFFFFFFFFFFFFFFFFFFFFF AND MUL OR SWAP1 SSTORE POP POP JUMP JUMPDEST PUSH0 DUP2 SWAP1 POP SWAP2 SWAP1 POP JUMP JUMPDEST PUSH0 DUP2 SWAP1 POP SWAP2 SWAP1 POP JUMP JUMPDEST PUSH32 0x4E487B7100000000000000000000000000000000000000000000000000000000 PUSH0 MSTORE PUSH1 0x11 PUSH1 0x4 MSTORE PUSH1 0x24 PUSH0 REVERT JUMPDEST PUSH0 PUSH2 0xEF DUP3 PUSH2 0xAF JUMP JUMPDEST SWAP2 POP PUSH2 0xFA DUP4 PUSH2 0xAF JUMP JUMPDEST SWAP3 POP DUP3 DUP3 SUB SWAP1 POP DUP2 DUP2 GT ISZERO PUSH2 0x112 JUMPI PUSH2 0x111 PUSH2 0xB8 JUMP JUMPDEST JUMPDEST SWAP3 SWAP2 POP POP JUMP JUMPDEST PUSH2 0x4EF DUP1 PUSH2 0x125 PUSH0 CODECOPY PUSH0 RETURN INVALID PUSH1 0x80 PUSH1 0x40 MSTORE PUSH1 0x4 CALLDATASIZE LT PUSH2 0x4D JUMPI PUSH0 CALLDATALOAD PUSH1 0xE0 SHR DUP1 PUSH4 0x373DCC12 EQ PUSH2 0x76 JUMPI DUP1 PUSH4 0x691BD2AE EQ PUSH2 0xA0 JUMPI DUP1 PUSH4 0x6E9960C3 EQ PUSH2 0xC8 JUMPI DUP1 PUSH4 0x9C4B32BE EQ PUSH2 0xF2 JUMPI DUP1 PUSH4 0xA0AB35AA EQ PUSH2 0x11C JUMPI PUSH2 0x64 JUMP JUMPDEST CALLDATASIZE PUSH2 0x64 JUMPI PUSH2 0x62 PUSH2 0x5D PUSH2 0x146 JUMP JUMPDEST PUSH2 0x1A7 JUMP JUMPDEST STOP JUMPDEST PUSH2 0x74 PUSH2 0x6F PUSH2 0x146 JUMP JUMPDEST PUSH2 0x1A7 JUMP JUMPDEST STOP JUMPDEST CALLVALUE DUP1 ISZERO PUSH2 0x81 JUMPI PUSH0 DUP1 REVERT JUMPDEST POP PUSH2 0x8A PUSH2 0x1C6 JUMP JUMPDEST PUSH1 0x40 MLOAD PUSH2 0x97 SWAP2 SWAP1 PUSH2 0x3AD JUMP JUMPDEST PUSH1 0x40 MLOAD DUP1 SWAP2 SUB SWAP1 RETURN JUMPDEST CALLVALUE DUP1 ISZERO PUSH2 0xAB JUMPI PUSH0 DUP1 REVERT JUMPDEST POP PUSH2 0xC6 PUSH1 0x4 DUP1 CALLDATASIZE SUB DUP2 ADD SWAP1 PUSH2 0xC1 SWAP2 SWAP1 PUSH2 0x3F4 JUMP JUMPDEST PUSH2 0x1D4 JUMP JUMPDEST STOP JUMPDEST CALLVALUE DUP1 ISZERO PUSH2 0xD3 JUMPI PUSH0 DUP1 REVERT JUMPDEST POP PUSH2 0xDC PUSH2 0x28E JUMP JUMPDEST PUSH1 0x40 MLOAD PUSH2 0xE9 SWAP2 SWAP1 PUSH2 0x3AD JUMP JUMPDEST PUSH1 0x40 MLOAD DUP1 SWAP2 SUB SWAP1 RETURN JUMPDEST CALLVALUE DUP1 ISZERO PUSH2 0xFD JUMPI PUSH0 DUP1 REVERT JUMPDEST POP PUSH2 0x106 PUSH2 0x29C JUMP JUMPDEST PUSH1 0x40 MLOAD PUSH2 0x113 SWAP2 SWAP1 PUSH2 0x437 JUMP JUMPDEST PUSH1 0x40 MLOAD DUP1 SWAP2 SUB SWAP1 RETURN JUMPDEST CALLVALUE DUP1 ISZERO PUSH2 0x127 JUMPI PUSH0 DUP1 REVERT JUMPDEST POP PUSH2 0x130 PUSH2 0x2D0 JUMP JUMPDEST PUSH1 0x40 MLOAD PUSH2 0x13D SWAP2 SWAP1 PUSH2 0x437 JUMP JUMPDEST PUSH1 0x40 MLOAD DUP1 SWAP2 SUB SWAP1 RETURN JUMPDEST PUSH0 PUSH2 0x180 PUSH1 0x1 PUSH32 0x486287226DF0757AF294903DA9BC1EDB84C92006AFE00D704A2E6E2AEA90D6B8 PUSH0 SHR PUSH2 0x179 SWAP2 SWAP1 PUSH2 0x486 JUMP JUMPDEST PUSH0 SHL PUSH2 0x304 JUMP JUMPDEST PUSH0 ADD PUSH0 SWAP1 SLOAD SWAP1 PUSH2 0x100 EXP SWAP1 DIV PUSH20 0xFFFFFFFFFFFFFFFFFFFFFFFFFFFFFFFFFFFFFFFF AND SWAP1 POP SWAP1 JUMP JUMPDEST CALLDATASIZE PUSH0 DUP1 CALLDATACOPY PUSH0 DUP1 CALLDATASIZE PUSH0 DUP5 GAS DELEGATECALL RETURNDATASIZE PUSH0 DUP1 RETURNDATACOPY DUP1 PUSH0 DUP2 EQ PUSH2 0x1C2 JUMPI RETURNDATASIZE PUSH0 RETURN JUMPDEST RETURNDATASIZE PUSH0 REVERT JUMPDEST PUSH0 PUSH2 0x1CF PUSH2 0x146 JUMP JUMPDEST SWAP1 POP SWAP1 JUMP JUMPDEST PUSH2 0x1DC PUSH2 0x30D JUMP JUMPDEST PUSH20 0xFFFFFFFFFFFFFFFFFFFFFFFFFFFFFFFFFFFFFFFF AND CALLER PUSH20 0xFFFFFFFFFFFFFFFFFFFFFFFFFFFFFFFFFFFFFFFF AND EQ PUSH2 0x212 JUMPI PUSH0 DUP1 REVERT JUMPDEST DUP1 PUSH2 0x24C PUSH1 0x1 PUSH32 0x486287226DF0757AF294903DA9BC1EDB84C92006AFE00D704A2E6E2AEA90D6B8 PUSH0 SHR PUSH2 0x245 SWAP2 SWAP1 PUSH2 0x486 JUMP JUMPDEST PUSH0 SHL PUSH2 0x304 JUMP JUMPDEST PUSH0 ADD PUSH0 PUSH2 0x100 EXP DUP2 SLOAD DUP2 PUSH20 0xFFFFFFFFFFFFFFFFFFFFFFFFFFFFFFFFFFFFFFFF MUL NOT AND SWAP1 DUP4 PUSH20 0xFFFFFFFFFFFFFFFFFFFFFFFFFFFFFFFFFFFFFFFF AND MUL OR SWAP1 SSTORE POP POP JUMP JUMPDEST PUSH0 PUSH2 0x297 PUSH2 0x30D JUMP JUMPDEST SWAP1 POP SWAP1 JUMP JUMPDEST PUSH1 0x1 PUSH32 0xDF8B4C520FFE197C5343C6F5AEC59570151EF9A492F2C624FD45DDDE6135EC42 PUSH0 SHR PUSH2 0x2CB SWAP2 SWAP1 PUSH2 0x486 JUMP JUMPDEST PUSH0 SHL DUP2 JUMP JUMPDEST PUSH1 0x1 PUSH32 0x486287226DF0757AF294903DA9BC1EDB84C92006AFE00D704A2E6E2AEA90D6B8 PUSH0 SHR PUSH2 0x2FF SWAP2 SWAP1 PUSH2 0x486 JUMP JUMPDEST PUSH0 SHL DUP2 JUMP JUMPDEST PUSH0 DUP2 SWAP1 POP SWAP2 SWAP1 POP JUMP JUMPDEST PUSH0 PUSH2 0x347 PUSH1 0x1 PUSH32 0xDF8B4C520FFE197C5343C6F5AEC59570151EF9A492F2C624FD45DDDE6135EC42 PUSH0 SHR PUSH2 0x340 SWAP2 SWAP1 PUSH2 0x486 JUMP JUMPDEST PUSH0 SHL PUSH2 0x304 JUMP JUMPDEST PUSH0 ADD PUSH0 SWAP1 SLOAD SWAP1 PUSH2 0x100 EXP SWAP1 DIV PUSH20 0xFFFFFFFFFFFFFFFFFFFFFFFFFFFFFFFFFFFFFFFF AND SWAP1 POP SWAP1 JUMP JUMPDEST PUSH0 PUSH20 0xFFFFFFFFFFFFFFFFFFFFFFFFFFFFFFFFFFFFFFFF DUP3 AND SWAP1 POP SWAP2 SWAP1 POP JUMP JUMPDEST PUSH0 PUSH2 0x397 DUP3 PUSH2 0x36E JUMP JUMPDEST SWAP1 POP SWAP2 SWAP1 POP JUMP JUMPDEST PUSH2 0x3A7 DUP2 PUSH2 0x38D JUMP JUMPDEST DUP3 MSTORE POP POP JUMP JUMPDEST PUSH0 PUSH1 0x20 DUP3 ADD SWAP1 POP PUSH2 0x3C0 PUSH0 DUP4 ADD DUP5 PUSH2 0x39E JUMP JUMPDEST SWAP3 SWAP2 POP POP JUMP JUMPDEST PUSH0 DUP1 REVERT JUMPDEST PUSH2 0x3D3 DUP2 PUSH2 0x38D JUMP JUMPDEST DUP2 EQ PUSH2 0x3DD JUMPI PUSH0 DUP1 REVERT JUMPDEST POP JUMP JUMPDEST PUSH0 DUP2 CALLDATALOAD SWAP1 POP PUSH2 0x3EE DUP2 PUSH2 0x3CA JUMP JUMPDEST SWAP3 SWAP2 POP POP JUMP JUMPDEST PUSH0 PUSH1 0x20 DUP3 DUP5 SUB SLT ISZERO PUSH2 0x409 JUMPI PUSH2 0x408 PUSH2 0x3C6 JUMP JUMPDEST JUMPDEST PUSH0 PUSH2 0x416 DUP5 DUP3 DUP6 ADD PUSH2 0x3E0 JUMP JUMPDEST SWAP2 POP POP SWAP3 SWAP2 POP POP JUMP JUMPDEST PUSH0 DUP2 SWAP1 POP SWAP2 SWAP1 POP JUMP JUMPDEST PUSH2 0x431 DUP2 PUSH2 0x41F JUMP JUMPDEST DUP3 MSTORE POP POP JUMP JUMPDEST PUSH0 PUSH1 0x20 DUP3 ADD SWAP1 POP PUSH2 0x44A PUSH0 DUP4 ADD DUP5 PUSH2 0x428 JUMP JUMPDEST SWAP3 SWAP2 POP POP JUMP JUMPDEST PUSH0 DUP2 SWAP1 POP SWAP2 SWAP1 POP JUMP JUMPDEST PUSH32 0x4E487B7100000000000000000000000000000000000000000000000000000000 PUSH0 MSTORE PUSH1 0x11 PUSH1 0x4 MSTORE PUSH1 0x24 PUSH0 REVERT JUMPDEST PUSH0 PUSH2 0x490 DUP3 PUSH2 0x450 JUMP JUMPDEST SWAP2 POP PUSH2 0x49B DUP4 PUSH2 0x450 JUMP JUMPDEST SWAP3 POP DUP3 DUP3 SUB SWAP1 POP DUP2 DUP2 GT ISZERO PUSH2 0x4B3 JUMPI PUSH2 0x4B2 PUSH2 0x459 JUMP JUMPDEST JUMPDEST SWAP3 SWAP2 POP POP JUMP INVALID LOG2 PUSH5 0x6970667358 0x22 SLT KECCAK256 0xAD MUL SLOAD 0x2D ADD 0xBE 0xBA PUSH10 0xBEE81C855C763A7A7CEC 0xC4 OR 0xC7 DUP3 ISZERO 0x4E 0x4C 0xE4 SWAP10 ADDMOD 0xC5 0xCA SWAP15 PUSH17 0x64736F6C63430008140033000000000000 "
				},
				"gasEstimates": {
					"creation": {
						"codeDepositCost": "252600",
						"executionCost": "infinite",
						"totalCost": "infinite"
					},
					"external": {
						"": "infinite",
						"ADMIN_SLOT()": "infinite",
						"IMPL_SLOT()": "infinite",
						"getAdmin()": "infinite",
						"getEImpl()": "infinite",
						"setImpl(address)": "infinite"
					},
					"internal": {
						"delegate(address)": "infinite",
						"getImpl()": "infinite",
						"getOwner()": "infinite",
						"setOwner(address)": "infinite"
					}
				},
				"methodIdentifiers": {
					"ADMIN_SLOT()": "9c4b32be",
					"IMPL_SLOT()": "a0ab35aa",
					"getAdmin()": "6e9960c3",
					"getEImpl()": "373dcc12",
					"setImpl(address)": "691bd2ae"
				}
			},
			"storageLayout": {
				"storage": [],
				"types": null
			},
			"userdoc": {
				"kind": "user",
				"methods": {},
				"version": 1
			}
		}
	}
}